:100000000C947F010C944C080C9425080C94A701C7
:100010000C94A7010C94A7010C94A7010C94A701C0
:100020000C94A7010C94A7010C94A7010C94A701B0
:100030000C94A7010C94A7010C94A7010C94A701A0
:100040000C94DB070C94A7010C9499080C9473088A
:100050000C94A7010C94A7010C94A7010C94A70180
:100060000C94A7010C94A701486561642055702089
:10007000707265737365640A004865616420557029
:100080002072656C65617365640A0048656164206F
:10009000446F776E20707265737365640A00466CF6
:1000A000617420707265737365640A00466F6F74C3
:1000B00020446F776E20707265737365640A004622
:1000C0006F6F7420557020707265737365640A00D9
:1000D0004720707265737365640A004C696674200A
:1000E0003120707265737365640A004C6966742010
:1000F0003220707265737365640A00416E74692002
:10010000536E6F726520707265737365640A004D7B
:100110006173736167652048656164202B2070728C
:1001200065737365640A004D617373616765204888
:10013000656164202D20707265737365640A004DDB
:1001400061737361676520466F6F74202B20707236
:1001500065737365640A004D61737361676520465A
:100160006F6F74202D20707265737365640A004D83
:100170006173736167652053746F7020707265736B
:100180007365640A004D6173736167652046756C21
:100190006C20426F647920707265737365640A0025
:1001A0004D61737361676520427574746F6E2031A1
:1001B00020707265737365640A004D6173736167C3
:1001C0006520427574746F6E20322070726573738F
:1001D00065640A004D6173736167652042757474CC
:1001E0006F6E203320707265737365640A003A2065
:1001F000617373657274696F6E206661696C6564A2
:100200002C2061626F727465642E000A524634338A
:1002100033726563762E6370703A0000000000232D
:10022000002600290000000000240027002A0057B3
:10023000616974696E6720666F72207369676E61A9
:100240006C0A0000C7C7020001C4C401630200C5F4
:10025000930000C6C60400020506050003C4C406D8
:100260006300C7C70700020B0C0908020D0E0C0241
:1002700000C6C60A0002090A0B9404C4C40F000099
:10028000C6C60D000207080E0005C4C40F00061202
:1002900012100600C7C711000211C5010200C6C630
:1002A0001300020102140000C7C715000203040373
:1002B000020207080E0000000000250028002B00A5
:1002C00004040404040404040202020202020303FC
:1002D0000303030301020408102040800102040804
:1002E0001020010204081020000000080002010094
:1002F000000304070000000000000000CB081124E8
:100300001FBECFEFD8E0DEBFCDBF11E0A0E0B1E06F
:10031000ECE2FCE102C005900D92A032B107D9F7E2
:1003200021E0A0E2B1E001C01D92AE3EB207E1F7CC
:1003300011E0CFE7D1E004C02197FE010E940E0E2C
:10034000CE37D107C9F70E9432090C94140E0C94D1
:1003500000008230C8F4E82FF0E0EE0FFF1FE050FD
:10036000FF4F71836083813041F0809169008C7F01
:10037000816080936900E89A089580916900837F85
:10038000846080936900E99A08958091E701811162
:1003900009C081E08093E70161EC76E08091E101A2
:1003A0000C94A9010895833081F028F4813099F0EC
:1003B0008230A9F008958730A9F08830C9F08430E0
:1003C000B1F4809180008F7D03C0809180008F7791
:1003D00080938000089584B58F7784BD089584B597
:1003E0008F7DFBCF8091B0008F778093B000089510
:1003F0008091B0008F7DF9CF1F93CF93DF93ECEE08
:10040000F2E09491E8EDF2E0D491E4ECF2E0C491F2
:10041000CC23B9F0182F992319F0892F0E94D3010A
:10042000EC2FF0E0EE0FFF1FEA54FD4FA591B491C1
:100430008FB7F894EC91111108C0D095DE23DC93AE
:100440008FBFDF91CF911F910895DE2BF8CF3FB77B
:10045000F89480913D0190913E01A0913F01B091AF
:10046000400126B5A89B05C02F3F19F00196A11D9C
:10047000B11D3FBFBA2FA92F982F8827BC01CD01EE
:10048000620F711D811D911D42E0660F771F881F4D
:10049000991F4A95D1F708950F931F930E94270241
:1004A000009120011091210120912201309123011E
:1004B0006093200170932101809322019093230186
:1004C000601B710B820B930B6115710521E0820794
:1004D000910520F06FEF7FEF80E090E0685C71099C
:1004E0008109910921E0613E70468105910508F07E
:1004F00020E0609135017091360180913501909135
:100500003601880F991F90933601809335014091F1
:10051000350150913601822F90E0422B592B509398
:100520003601409335012091330130913401820F1F
:10053000931F909334018093330180913301909104
:100540003401272F221F2227221F821B91099093FB
:100550003401809333011F910F910895E82FF0E04B
:10056000882359F0813059F0EE0FFF1FE050FF4F04
:1005700081EC92E0918380830895E898F5CFE99823
:10058000F3CF0895AF92BF92CF92DF92EF92FF9296
:100590000F931F93CF93DF936C017B018B01040FAB
:1005A000151FEB015E01AE18BF08C017D10759F047
:1005B0006991D601ED91FC910190F081E02DC60189
:1005C0000995892B79F7C501DF91CF911F910F9183
:1005D000FF90EF90DF90CF90BF90AF900895FC0117
:1005E000538D448D252F30E0842F90E0821B930B98
:1005F000541710F0CF96089501970895FC01918D3E
:10060000828D981761F0A28DAE0FBF2FB11D5D9640
:100610008C91928D9F5F9F73928F90E008958FEFE2
:100620009FEF0895FC01918D828D981731F0828D96
:10063000E80FF11D858D90E008958FEF9FEF0895ED
:10064000FC01918D228D892F90E0805C9F4F821B51
:1006500091098F739927089581E491E00E94200306
:1006600021E0892B09F420E0822F089580E090E0BA
:10067000892B29F00E942C0381110C94000008950D
:10068000FC01A48DA80FB92FB11DA35ABF4F2C9107
:10069000848D90E001968F739927848FA689B789FE
:1006A0002C93A089B1898C91837080648C93938DF5
:1006B000848D981306C00288F389E02D80818F7D98
:1006C00080830895EF92FF920F931F93CF93DF9350
:1006D000EC0181E0888F9B8D8C8D98131AC0E8897E
:1006E000F989808185FF15C09FB7F894EE89FF894D
:1006F0006083E889F98980818370806480839FBFEB
:1007000081E090E0DF91CF911F910F91FF90EF90EA
:100710000895F62E0B8D10E00F5F1F4F0F731127FA
:10072000E02E8C8D8E110CC00FB607FCFACFE88935
:10073000F989808185FFF5CFCE010E944003F1CF7A
:10074000EB8DEC0FFD2FF11DE35AFF4FF0829FB7A9
:10075000F8940B8FEA89FB8980818062CFCF0F9359
:100760001F93CF93DF938C01D0E0C0E0F801EC0F32
:10077000FD1F6491662341F081E491E00E946203D1
:10078000892B11F02196F2CFCE01DF91CF911F91ED
:100790000F9108958BE890E00C94AF0388E690E009
:1007A0000E94AF0381E080933701089589E790E0CC
:1007B0000E94AF031092370108958EE990E00C94E7
:1007C000AF038FEB90E00C94AF038CEA90E00C94B5
:1007D000AF0380ED90E00C94AF038BED90E00C94B0
:1007E000AF038BEE90E00C94AF038BEF90E00C9492
:1007F000AF038FE091E00C94AF0387E291E00C949B
:10080000AF0387E591E00C94AF038FE391E00C9484
:10081000AF038FE691E00C94AF0385E891E00C9470
:10082000AF0380EA91E00C94AF038AEB91E00C9463
:10083000AF0384ED91E00C94AF03CF93DF93EC0111
:10084000888D8823B9F0AA89BB89E889F9898C91B8
:1008500085FD03C0808186FD0DC00FB607FCF7CF74
:100860008C9185FFF2CF808185FFEDCFCE010E9474
:100870004003E9CFDF91CF910895811528E09207D9
:1008800030F434E0969587953A95E1F7089581150F
:1008900024E4920740F49850880F892F881F990B01
:1008A000919580580895811524EB920730F4945463
:1008B000892F82958F70885008958FEF08957F92C9
:1008C0008F929F92AF92BF92CF92DF92EF92FF9260
:1008D0000F931F93CF93DF93EC015B014A01820ECC
:1008E000911C040F152F111DE40EF52EF11CC40EE2
:1008F000D52ED11C8617970709F448C07724739426
:100900006817790728F08B2D5E01C62FD82F712C20
:10091000C50196958795969587950E943D04F401AB
:100920008083C5018C0F9D1F969587950E943D047D
:10093000F80180838F5FF7018083CE0196958795BC
:100940008C0F9D1F0E943D04F6018083772081F06B
:10095000F4019081F8018081F7012081F401208366
:10096000F6012081F8012083F7019083F60180834E
:10097000DF91CF911F910F91FF90EF90DF90CF907B
:10098000BF90AF909F908F907F9008955C01B69438
:10099000A794C5010E943D04F4018083C5018C0F1A
:1009A0009D1F0E943D04F8018083F4018081F701BE
:1009B0008083F8018081DACFCF93DF93CDB7DEB7A4
:1009C000A1970FB6F894DEBF0FBECDBF8C018BE0B0
:1009D00092E00E94AF03980150E040E019A28E011E
:1009E0000F5D1F4F8AE0C82ED12CE12CF12CCA01DB
:1009F000B901A70196010E94EC0D605DF8016293B8
:100A00008F01211531054105510589F7309761F0B6
:100A100001900020E9F73197AF01401B510BB8015D
:100A200081E491E00E94C2028EEE91E00E94AF0349
:100A300042E050E06DE171E081E491E00E94C20289
:100A4000FFCF8F929F92AF92BF92EF92FF920F9340
:100A50001F93CF93DF938C014A015B017901C09111
:100A6000DF01D091E001209729F486EA94E00E940A
:100A7000DC04EC0189859A850097D9F78EE090E037
:100A80000E94C70CFC01F182E082138302838482FE
:100A90009582A682B78210861186128613861586E5
:100AA0001486AF81B885109719F498878F830CC08E
:100AB0001C968D919C911D97009711F0DC01F8CF49
:100AC0001D96FC93EE931C97DF91CF911F910F9190
:100AD000FF90EF90BF90AF909F908F9008950F93ED
:100AE0001F93CF93DF93EC01062F142F84E090E047
:100AF0000E94C70CFC019983888384E08B8380E289
:100B00008C8388E7838380E1828301831083DF9174
:100B1000CF911F910F910895AF92BF92CF92DF9224
:100B2000EF92FF920F931F93CF93DF93D82E8BE119
:100B300090E00E94C70CEC015C0184E0A80EB11C9F
:100B40003AE0C32E49E0E42E08E027E0A5016AEF71
:100B500073E08AEF91E00E945F045EE0C52E6DE0D5
:100B6000E62E0CE02BE0A5016AEF73E08AEF91E03E
:100B70000E945F0489E099E30E943D048D8B2A89DD
:100B80009E85921708F4922F981710F09F5F9D8B07
:100B90008C838EE89EE00E943D048D8382E498E180
:100BA0000E943D048E8386E290E10E943D048F8383
:100BB0008AEE9AE10E943D0488878EE18B8B8CEA55
:100BC00095E00E943D048C8B8FE1898787EF95E04B
:100BD0000E943D048A87DE8A198E81E08A8F87E130
:100BE00090E09B838A8383E492E09983888382E107
:100BF0008F8B188E8BE090E00E94C70C8C01FC015B
:100C0000D183C083D2821382168210861782128605
:100C1000118685E090E00E94C70C7C01FC01D28225
:100C20008D2D90E0079623E0959587952A95E1F71D
:100C3000838314820E94C70CF70191838083F8019B
:100C4000F582E48281E393E0CD2B21F0EF2821F4BB
:100C500083E393E00E94DC04E091DF01F091E00186
:100C6000309731F41093E0010093DF0107C0FC01DD
:100C7000818592850097D9F712870187DF91CF91FF
:100C80001F910F91FF90EF90DF90CF90BF90AF90AA
:100C90000895673138F4DC01ED91FC91E60FF11D08
:100CA00084810895643C91F0663C91F0673C91F03A
:100CB000653C91F0683C31F4DC01ED91FC91868952
:100CC0008150089580E693E00E94DC048AE2089552
:100CD00080E0089581E008958FEF0895DC01149677
:100CE000ED91FC911597309779F013961C9213971C
:100CF00016961C92A081B181109721F485EF90E0A7
:100D00000E94DC0414821C920895CF93DF93DC01CF
:100D100014968C9114978F5F14968C931497129657
:100D20009C911297981720F48CEF90E00E94DC04BD
:100D300013962C91139730E021153105F9F04D9160
:100D40005C911197E901219722503109209789F090
:100D5000FA01E20FF31F9081292F221F2227221F61
:100D6000FA01EC0FFD1F9081990F922B90839E0149
:100D7000E3CF21E06111F4CF20E0F2CFDF91CF91FA
:100D800008957F928F929F92AF92BF92CF92DF92FF
:100D9000EF92FF920F931F93CF93DF930E9427024E
:100DA00000912F01109130012091310130913201D9
:100DB0004B015C01801A910AA20AB30A60932F01C9
:100DC000709330018093310190933201D0902E01C5
:100DD00081E080932E012091040130E0F901E85177
:100DE000FD4F8491F901EC52FD4FC491F901E0549B
:100DF000FD4FD491DD2379F081110E94D301ED2FB5
:100E0000F0E0EE0FFF1FE55EFD4FA591B491EC9170
:100E1000CE23D1E009F4D0E0C4010E943D04E0916A
:100E20002D0191E09E0F937020912C01291305C094
:100E300021E0290F237020932C01F0E0EE0FFF1F1B
:100E4000EC5DFE4FD083818390932D01D110A3C020
:100E500095E0C92E99249394E0912C0180912D0165
:100E6000E81709F497C0F0E0EE0FFF1FEC5DFE4FAE
:100E7000B080A1807894C091DF01D091E0012097EB
:100E800009F480C0E881F981E080F1808B818701DD
:100E90008C9D000D111D1124F801849031966491F0
:100EA000CE010E944906782EF80132966491CE0157
:100EB0000E944906F6E0F81508F452C0E82DF0E06B
:100EC000EC59F84F0C940E0E6B07840786078D07BC
:100ED0009C07A407A807B714E8F08B15D8F0F80111
:100EE0003396E491A881B981E7FF05C0EF77EA0F57
:100EF000FB2FF11DE48112968D919C91E817190644
:100F000090F18EE993E012C09E82E9CFA71410F011
:100F10008A1528F7F8013496E4CFAC81BD81ED91B4
:100F2000FC911197309721F485EF90E00E94DC044A
:100F300014961C921082D3CFE881F981618D8C8147
:100F40009D810E948506CBCFE881F981628DF7CF24
:100F5000EC81FD8194819715E8F28917D8F2BFCF13
:100F600083E993E0E3CFEB83C701EC9D800D911DF6
:100F70001124FC01E491E23008F088CF0984DA857D
:100F8000C02D7DCFF89480912C018F5F837080936A
:100F90002C0162CF7894D0922E01DF91CF911F91D6
:100FA0000F91FF90EF90DF90CF90BF90AF909F9008
:100FB0008F907F9008951F920F920FB60F92112479
:100FC0002F933F938F939F93AF93BF93809139015A
:100FD00090913A01A0913B01B0913C0130913801D0
:100FE00023E0230F2D3758F50196A11DB11D209345
:100FF00038018093390190933A01A0933B01B0935B
:101000003C0180913D0190913E01A0913F01B09142
:1010100040010196A11DB11D80933D0190933E01B9
:10102000A0933F01B0934001BF91AF919F918F91E9
:101030003F912F910F900FBE0F901F90189526E8AB
:10104000230F0296A11DB11DD2CF1F920F920FB692
:101050000F9211242F933F934F935F936F937F933E
:101060008F939F93AF93BF93EF93FF93E091020110
:10107000F09103010995FF91EF91BF91AF919F917D
:101080008F917F916F915F914F913F912F910F9031
:101090000FBE0F901F9018951F920F920FB60F92D0
:1010A00011242F933F934F935F936F937F938F936D
:1010B0009F93AF93BF93EF93FF93E0910001F09163
:1010C00001010995FF91EF91BF91AF919F918F9190
:1010D0007F916F915F914F913F912F910F900FBE34
:1010E0000F901F9018951F920F920FB60F92112418
:1010F0002F933F934F935F936F937F938F939F9320
:10110000AF93BF93EF93FF9381E491E00E9440037C
:10111000FF91EF91BF91AF919F918F917F916F91CF
:101120005F914F913F912F910F900FBE0F901F90A5
:1011300018951F920F920FB60F9211242F938F9331
:101140009F93EF93FF93E0915101F09152018081C1
:10115000E0915701F091580182FD1BC09081809170
:101160005A018F5F8F7320915B01821741F0E091EC
:101170005A01F0E0EF5BFE4F958F80935A01FF918B
:10118000EF919F918F912F910F900FBE0F901F9015
:1011900018958081F4CF109244011092430188EE9B
:1011A00093E0A0E0B0E08093450190934601A093C6
:1011B0004701B09348018FE091E090934201809302
:1011C000410185EC90E090934E0180934D0184ECB9
:1011D00090E09093500180934F0180EC90E09093C9
:1011E00052018093510181EC90E0909354018093DF
:1011F000530182EC90E0909356018093550186EC68
:1012000090E0909358018093570110925A011092E8
:101210005B0110925C0110925D011092E10110924D
:10122000E2011092E3011092E4011092E5011092A4
:10123000E6011092E7011092E8011092E90182E0C4
:10124000809304011092E0011092DF018091DE0191
:101250008F5F8093DE01813021F08CEE93E00E945D
:10126000DC040895789484B5826084BD84B581607F
:1012700084BD85B5826085BD85B5816085BD809161
:101280006E00816080936E001092810080918100D9
:1012900082608093810080918100816080938100D1
:1012A000809180008160809380008091B100846093
:1012B0008093B1008091B00081608093B0008091F4
:1012C0007A00846080937A0080917A0082608093B3
:1012D0007A0080917A00816080937A0080917A0010
:1012E000806880937A001092C100E6EDF2E02491CC
:1012F000E2ECF2E084918823C1F090E0880F991F1E
:10130000FC01EB5DFD4FC591D491FC01EA54FD4F0A
:10131000A591B4919FB7F8948881E22FE0958E2330
:1013200088838C91E823EC939FBFE8EDF2E0249151
:10133000E4ECF2E08491882399F090E0880F991F03
:10134000FC01EB5DFD4FA591B491FC01EA54FD4F0A
:10135000859194918FB7F894EC91E22BEC938FBF29
:10136000E0915101F091520182E08083E0914D01C2
:10137000F0914E011082E0914F01F091500110E187
:10138000108310925901E0915501F091560186E0C9
:101390008083E0915301F0915401808180618083CA
:1013A000E0915301F0915401808188608083E09145
:1013B0005301F0915401808180688083E091530152
:1013C000F091540180818F7D808388E20E948C059A
:1013D00085E090E00E94C70CEC0185E090E00E945F
:1013E000C70CFC019983888385E08B8388E28C831A
:1013F00088E78483138386ED82838EEB81838083E9
:101400009E0144EF51E060E070E08AEC93E00E94BE
:10141000210580E20E948C0585E090E00E94C70CC7
:10142000EC014FEB67ED0E946F059E0144EF51E028
:1014300060E070E08EEC93E00E94210585E090E092
:101440000E94C70CEC0148E660E00E946F059E0117
:1014500044EF51E060E070E086ED93E00E942105EA
:1014600085E090E00E94C70CEC0146EA6EEC0E9419
:101470006F059E0144EF51E060E070E08DED93E078
:101480000E94210585E090E00E94C70CEC014DEB25
:1014900065ED0E946F059E0144EF51E060E070E051
:1014A00081EE93E00E94210585E090E00E94C70C48
:1014B000EC014CEB64ED0E946F059E0144EF51E09E
:1014C00060E070E085EE93E00E94210585E090E009
:1014D0000E94C70CEC0140ED68EB0E946F059E0175
:1014E00044EF51E060E070E089EE93E00E94210556
:1014F00085E090E00E94C70CEC014BEA63EC0E948F
:101500006F059E0144EF51E060E070E08DEE93E0E6
:101510000E94210585E090E00E94C70CEC0149EA99
:1015200061EC0E946F059E0144EF51E060E070E0C5
:1015300081EF93E00E94210585E090E00E94C70CB6
:10154000EC014FED67EB0E946F059E0144EF51E007
:1015500060E070E085EF93E00E94210585E090E077
:101560000E94C70CEC014BEB63ED0E946F059E01DE
:1015700044EF51E060E070E089EF93E00E942105C4
:1015800085E090E00E94C70CEC014AEB62ED0E94FE
:101590006F059E0144EF51E060E070E08DEF93E055
:1015A0000E94210585E090E00E94C70CEC0148EB09
:1015B00060ED0E946F059E0144EF51E060E070E035
:1015C00081E094E00E94210585E090E00E94C70C34
:1015D000EC0149EB61ED0E946F059E0144EF51E083
:1015E00060E070E085E094E00E94210585E090E0F5
:1015F0000E94C70CEC0144EA6CEC0E946F059E014E
:1016000044EF51E060E070E089E094E00E94210541
:1016100085E090E00E94C70CEC0143EA6BEC0E946D
:101620006F059E0144EF51E060E070E08DE094E0D2
:101630000E94210585E090E00E94C70CEC0142EA7F
:101640006AEC0E946F059E0144EF51E060E070E09B
:1016500081E194E00E94210585E090E00E94C70CA2
:10166000EC0141EA69EC0E946F059E0144EF51E0F4
:1016700060E070E085E194E00E94210585E090E063
:101680000E94C70CEC0140EA68EC0E946F059E01C5
:1016900044EF51E060E070E089E194E00E942105B0
:1016A0008FE292E00E94AF030E94C501C091DF016A
:1016B000D091E001D12CE12CC12CF12C209709F420
:1016C00025C18E81882309F417C18091E9018823FF
:1016D00081F0C1100EC0E090E701C82EEE2049F065
:1016E0008091E101823010F40E94AE021092E70175
:1016F000CE2C1091E201112321F0FF2009F441C00A
:10170000F12E8FB7F8948090390190903A01A09013
:101710003B01B0903C018FBF0F811885712C0115E2
:10172000110509F4E5C0F80184819581A681B7818E
:101730000097A105B10599F04085518562857385B3
:10174000411551056105710551F0840F951FA61FC4
:10175000B71F88169906AA06BB0608F4B8C0F80198
:10176000A081B1818C819D81109709F4B4C000974C
:1017700009F06BC084E491E00E94DC04D0E0C0E09A
:101780009DCFF090E701FF2041F08091E101823090
:1017900010F40E94AE021092E7018FEF9FEF90933A
:1017A000360180933501A0E1B0E0B0933401A093FD
:1017B00033018FB7F8948090390190903A01A0904E
:1017C0003B01B0903C018FBF6CE472E08091E1017D
:1017D0000E94A9018091E3019091E401A091E501AB
:1017E000B091E60120913301309134012C30310564
:1017F00004F10097A105B105A9F32FB7F8948091E2
:10180000390190913A01A0913B01B0913C012FBF69
:1018100088199909AA09BB094091E3015091E40193
:101820006091E5017091E60184179507A607B70757
:1018300088F28091E101823010F40E94AE02FF2014
:1018400009F45ECF0E94C5015CCF14964C911497A9
:10185000242F30E0FC015481652F70E0621773077C
:10186000B4F1261737079CF121503109A0F1522E0F
:10187000241718F087E191E07FCF622F6770222450
:101880002394312C01C0220C6A95EAF7B901E3E0F8
:1018900075956795EA95E1F7ED91FC911197E60F43
:1018A000F71FE081E22166246394E11101C0612CFD
:1018B000551600F7FC0140805180F201E60FF71F3A
:1018C0006081262261E009F460E0661569F2F801A2
:1018D0000485158524CFD80118968D929D92AD92DE
:1018E000BC921B971296ED91FC9109957394EFCFE2
:1018F000CE010E946E06D70C8091E801882311F07A
:10190000D1103CCF0984DA85C02DD8CE8091E80172
:10191000882381F0DD2071F0F894C091DF01D0912F
:10192000E0012097D1F0CE010E946E060984DA858D
:10193000C02DF7CFFF2091F0F894C091DF01D09136
:10194000E001209751F08E81811103C0CE010E94E9
:101950006E060984DA85C02DF4CF7894E1100E94D8
:10196000C50180913701882381F081E00E94FC014C
:1019700080E090E0892B09F499CE0E942C03882303
:1019800009F494CE0E94000091CE80E0EFCF0F9337
:101990001F93CF93DF938230910510F482E090E0A3
:1019A000E091EC01F091ED0130E020E0B0E0A0E04A
:1019B000309799F42115310509F44AC0281B390BD9
:1019C00024303105D8F58A819B816115710589F133
:1019D000FB0193838283FE0111C04081518102810A
:1019E000138148175907E0F04817590799F41097E1
:1019F00061F012960C93129713961C933296CF01B6
:101A0000DF91CF911F910F9108950093EC011093F6
:101A1000ED01F4CF2115310551F04217530738F08D
:101A2000A901DB019A01BD01DF01F801C1CFEF017E
:101A3000F9CF9093ED018093EC01CDCFFE01E20F41
:101A4000F31F819391932250310939832883D7CF93
:101A50002091EA013091EB01232B41F42091070101
:101A6000309108013093EB012093EA0120910501A8
:101A7000309106012115310541F42DB73EB7409153
:101A8000090150910A01241B350BE091EA01F09104
:101A9000EB01E217F307A0F42E1B3F0B28173907C1
:101AA00078F0AC014E5F5F4F2417350748F04E0FBA
:101AB0005F1F5093EB014093EA01819391939FCF75
:101AC000F0E0E0E09CCFCF93DF930097E9F0FC01DA
:101AD000329713821282A091EC01B091ED01ED01D9
:101AE00030E020E01097A1F420813181820F931F14
:101AF0002091EA013091EB012817390709F061C004
:101B0000F093EB01E093EA01DF91CF910895EA01B0
:101B1000CE17DF07E8F54A815B819E01411551052B
:101B2000B1F7E901FB83EA8349915991C40FD51FAD
:101B3000EC17FD0761F4808191810296840F951F57
:101B4000E90199838883828193819B838A83F0E072
:101B5000E0E012968D919C9113970097B9F52D9125
:101B60003C911197CD010296820F931F2091EA01BB
:101B70003091EB012817390739F6309751F510925B
:101B8000ED011092EC01B093EB01A093EA01BCCF00
:101B9000D383C28340815181840F951FC817D90711
:101BA00061F44E5F5F4F88819981480F591F5183BF
:101BB00040838A819B81938382832115310509F0BB
:101BC000B0CFF093ED01E093EC019ECFFD01DC017D
:101BD000C0CF13821282D7CFA1E21A2EAA1BBB1B41
:101BE000FD010DC0AA1FBB1FEE1FFF1FA217B307E9
:101BF000E407F50720F0A21BB30BE40BF50B661FFF
:101C0000771F881F991F1A9469F7609570958095C2
:101C100090959B01AC01BD01CF010895EE0FFF1F10
:0C1C20000590F491E02D0994F894FFCF9A
:101C2C00C102C102FF0000EE018000000000006252
:101C3C0003C202EF021D042003FE0212030D0A0070
:00000001FF
