:100000000C947F010C9465080C943E080C94A70195
:100010000C94A7010C94A7010C94A7010C94A701C0
:100020000C94A7010C94A7010C94A7010C94A701B0
:100030000C94A7010C94A7010C94A7010C94A701A0
:100040000C94F4070C94A7010C94B2080C948C083F
:100050000C94A7010C94A7010C94A7010C94A70180
:100060000C94A7010C94A701486561642055702089
:10007000707265737365640A00427574746F6E20E4
:1000800072656C65617365640A004865616420444B
:100090006F776E20707265737365640A00466C61D9
:1000A0007420707265737365640A00466F6F742004
:1000B000446F776E20707265737365640A00466FD3
:1000C0006F7420557020707265737365640A004701
:1000D00020707265737365640A004C696674203120
:1000E00020707265737365640A004C69667420320F
:1000F00020707265737365640A00416E74692053E1
:100100006E6F726520707265737365640A004D616D
:1001100073736167652048656164202B2070726588
:10012000737365640A004D61737361676520486588
:100130006164202D20707265737365640A004D61DF
:10014000737361676520466F6F74202B2070726532
:10015000737365640A004D61737361676520466F50
:100160006F74202D20707265737365640A004D6191
:1001700073736167652053746F7020707265737359
:1001800065640A004D6173736167652046756C6C28
:1001900020426F647920707265737365640A004D44
:1001A00061737361676520427574746F6E203120CE
:1001B000707265737365640A004D6173736167657E
:1001C00020427574746F6E2032207072657373658F
:1001D000640A004D61737361676520427574746FC2
:1001E0006E203320707265737365640A003A206173
:1001F0007373657274696F6E206661696C65642CD7
:100200002061626F727465642E000A524634333383
:10021000726563762E6370703A0000000000230060
:100220002600290057616974696E6720666F722025
:100230007369676E616C0A000000000024002700EB
:100240002A0000000000250028002B0004040404FC
:100250000404040402020202020203030303030370
:10026000010204081020408001020408102001024D
:100270000408102000000008000201000003040729
:10028000000000000000000000C7C7020001C4C455
:1002900001630200C5930000C6C6040002050605FE
:1002A0000003C4C4066300C7C70700020B0C09089B
:1002B000020D0E0C0200C6C60A0002090A0B9404C5
:1002C000C4C40F0000C6C60D000207080E0005C416
:1002D000C40F00061212100600C7C711000211C594
:1002E000010200C6C61300020102140000C7C715B0
:1002F0000002030403020207080E0000E4081124B0
:100300001FBECFEFD8E0DEBFCDBF11E0A0E0B1E06F
:10031000EAE6FCE102C005900D92A032B107D9F7E0
:1003200021E0A0E2B1E001C01D92AF3EB207E1F7CB
:1003300011E0CFE7D1E004C02197FE010E942D0E0D
:10034000CE37D107C9F70E944B090C94330E0C9499
:1003500000008230C8F4E82FF0E0EE0FFF1FE050FD
:10036000FF4F71836083813041F0809169008C7F01
:10037000816080936900E89A089580916900837F85
:10038000846080936900E99A08958091E801811161
:1003900009C081E08093E8016AED76E08091E20196
:1003A0000C94A9010895833081F028F4813099F0EC
:1003B0008230A9F008958730A9F08830C9F08430E0
:1003C000B1F4809180008F7D03C0809180008F7791
:1003D00080938000089584B58F7784BD089584B597
:1003E0008F7DFBCF8091B0008F778093B000089510
:1003F0008091B0008F7DF9CF1F93CF93DF93282F8B
:1004000030E0F901EC58FD4F8491F901E05AFD4FBD
:10041000D491F901E45BFD4FC491CC23A9F0162FD0
:1004200081110E94D301EC2FF0E0EE0FFF1FEE5B75
:10043000FD4FA591B4918FB7F894EC91111108C0BC
:10044000D095DE23DC938FBFDF91CF911F9108956C
:10045000DE2BF8CF3FB7F89480913E0190913F0199
:10046000A0914001B091410126B5A89B05C02F3F46
:1004700019F00196A11DB11D3FBFBA2FA92F982FCA
:100480008827BC01CD01620F711D811D911D42E0C5
:10049000660F771F881F991F4A95D1F708950F930C
:1004A0001F930E942A0200912001109121012091A6
:1004B00022013091230160932001709321018093E8
:1004C000220190932301601B710B820B930B61152A
:1004D000710521E08207910520F06FEF7FEF80E04A
:1004E00090E0685C71098109910921E0613E7046E4
:1004F0008105910508F020E0609135017091360189
:100500008091350190913601880F991F90933601A3
:10051000809335014091350150913601822F90E052
:10052000422B592B509336014093350120913301D2
:1005300030913401820F931F9093340180933301E3
:100540008091330190913401272F221F2227221FEF
:10055000821B910990933401809333011F910F9175
:100560000895E82FF0E0882359F0813059F0EE0F1C
:10057000FF1FE050FF4F84EC92E091838083089549
:10058000E898F5CFE998F3CF0895AF92BF92CF9254
:10059000DF92EF92FF920F931F93CF93DF936C0143
:1005A0007B018B01040F151FEB015E01AE18BF0824
:1005B000C017D10759F06991D601ED91FC910190D6
:1005C000F081E02DC6010995892B79F7C501DF91EE
:1005D000CF911F910F91FF90EF90DF90CF90BF9040
:1005E000AF900895FC01538D448D252F30E0842F6A
:1005F00090E0821B930B541710F0CF96089501974B
:100600000895FC01918D828D981761F0A28DAE0F37
:10061000BF2FB11D5D968C91928D9F5F9F73928FBE
:1006200090E008958FEF9FEF0895FC01918D828DEA
:10063000981731F0828DE80FF11D858D90E00895B7
:100640008FEF9FEF0895FC01918D228D892F90E00F
:10065000805C9F4F821B91098F739927089582E4D4
:1006600091E00E94230321E0892B09F420E0822FEE
:10067000089580E090E0892B29F00E942F038111DA
:100680000C9400000895FC01A48DA80FB92FB11D92
:10069000A35ABF4F2C91848D90E001968F739927B8
:1006A000848FA689B7892C93A089B1898C91837096
:1006B00080648C93938D848D981306C00288F3898F
:1006C000E02D80818F7D80830895EF92FF920F93BC
:1006D0001F93CF93DF93EC0181E0888F9B8D8C8DEE
:1006E00098131AC0E889F989808185FF15C09FB7E2
:1006F000F894EE89FF896083E889F98980818370A5
:10070000806480839FBF81E090E0DF91CF911F9153
:100710000F91FF90EF900895F62E0B8D10E00F5F74
:100720001F4F0F731127E02E8C8D8E110CC00FB64A
:1007300007FCFACFE889F989808185FFF5CFCE01E2
:100740000E944303F1CFEB8DEC0FFD2FF11DE35A17
:10075000FF4FF0829FB7F8940B8FEA89FB89808165
:100760008062CFCF0F931F93CF93DF938C01D0E0A4
:10077000C0E0F801EC0FFD1F6491662341F082E4B4
:1007800091E00E946503892B11F02196F2CFCE01F2
:10079000DF91CF911F910F9108958AE890E00E9418
:1007A000B20385E08093380181E08093370108959A
:1007B00088E690E00E94B20381E0809337010895BB
:1007C00089E790E00E94B2031092370108958DE905
:1007D00090E00E94B20381E08093370108958EEB90
:1007E00090E00E94B20387E08093380108958BEA7D
:1007F00090E00E94B20386E08093380181E080930C
:10080000370108958FEC90E00C94B2038AED90E0EC
:100810000C94B2038AEE90E00C94B2038AEF90E05D
:100820000C94B2038EE091E00C94B20386E291E066
:100830000C94B20386E591E00C94B2038EE391E050
:100840000C94B2038EE691E00C94B20384E891E03C
:100850000C94B2038FE991E00C94B20389EB91E020
:100860000C94B20383ED91E00C94B203CF93DF9329
:10087000EC01888D8823B9F0AA89BB89E889F989B8
:100880008C9185FD03C0808186FD0DC00FB607FCED
:10089000F7CF8C9185FFF2CF808185FFEDCFCE0120
:1008A0000E944303E9CFDF91CF910895811528E09D
:1008B000920730F434E0969587953A95E1F70895DC
:1008C000811524E4920740F49850880F892F881FDF
:1008D000990B919580580895811524EB920730F477
:1008E0009454892F82958F70885008958FEF0895C2
:1008F0007F928F929F92AF92BF92CF92DF92EF92B0
:10090000FF920F931F93CF93DF93EC015B014A019A
:10091000820E911C040F152F111DE40EF52EF11CF3
:10092000C40ED52ED11C8617970709F448C077242A
:1009300073946817790728F08B2D5E01C62FD82F86
:10094000712CC50196958795969587950E945604BA
:10095000F4018083C5018C0F9D1F969587950E9499
:100960005604F80180838F5FF7018083CE0196954E
:1009700087958C0F9D1F0E945604F6018083772077
:1009800081F0F4019081F8018081F7012081F40168
:100990002083F6012081F8012083F7019083F6017E
:1009A0008083DF91CF911F910F91FF90EF90DF90A7
:1009B000CF90BF90AF909F908F907F9008955C01F3
:1009C000B694A794C5010E945604F4018083C50122
:1009D0008C0F9D1F0E945604F8018083F4018081D2
:1009E000F7018083F8018081DACFCF93DF93CDB711
:1009F000DEB7A1970FB6F894DEBF0FBECDBF8C0156
:100A00008AE092E00E94B203980150E040E019A20F
:100A10008E010F5D1F4F8AE0C82ED12CE12CF12CE6
:100A2000CA01B901A70196010E940B0E605DF80191
:100A300062938F01211531054105510589F73097E2
:100A400061F001900020E9F73197AF01401B510B95
:100A5000B80182E491E00E94C5028DEE91E00E940F
:100A6000B20342E050E06DE171E082E491E00E9467
:100A7000C502FFCF8F929F92AF92BF92EF92FF92EB
:100A80000F931F93CF93DF938C014A015B01790190
:100A9000C091E001D091E101209729F486EA94E029
:100AA0000E94F504EC0189859A850097D9F78EE0BC
:100AB00090E00E94E60CFC01F182E0821383028345
:100AC00084829582A682B78210861186128613864A
:100AD00015861486AF81B885109719F498878F838F
:100AE0000CC01C968D919C911D97009711F0DC0114
:100AF000F8CF1D96FC93EE931C97DF91CF911F9139
:100B00000F91FF90EF90BF90AF909F908F900895BE
:100B10000F931F93CF93DF93EC01062F142F84E0E4
:100B200090E00E94E60CFC019983888384E08B832B
:100B300080E28C8388E7838380E182830183108352
:100B4000DF91CF911F910F910895AF92BF92CF92F5
:100B5000DF92EF92FF920F931F93CF93DF93D82EE4
:100B60008BE190E00E94E60CEC015C0184E0A80EB1
:100B7000B11C3AE0C32E49E0E42E08E027E0A501CD
:100B80006AEF73E08AEF91E00E9478045EE0C52E80
:100B90006DE0E62E0CE02BE0A5016AEF73E08AEF32
:100BA00091E00E94780489E099E30E9456048D8BBD
:100BB0002A899E85921708F4922F981710F09F5F4C
:100BC0009D8B8C838EE89EE00E9456048D8382E488
:100BD00098E10E9456048E8386E290E10E945604BA
:100BE0008F838AEE9AE10E94560488878EE18B8B70
:100BF0008CEA95E00E9456048C8B8FE1898787EF01
:100C000095E00E9456048A87DE8A198E81E08A8FD9
:100C100087E190E09B838A8388E892E099838883C8
:100C200082E18F8B188E8BE090E00E94E60C8C01A5
:100C3000FC01D183C083D282138216821086178270
:100C40001286118685E090E00E94E60C7C01FC0192
:100C5000D2828D2D90E0079623E0959587952A9571
:100C6000E1F7838314820E94E60CF701918380836D
:100C7000F801F582E48281E393E0CD2B21F0EF28A7
:100C800021F483E393E00E94F504E091E001F09108
:100C9000E101309731F41093E1010093E00107C0C6
:100CA000FC01818592850097D9F712870187DF9132
:100CB000CF911F910F91FF90EF90DF90CF90BF9059
:100CC000AF900895673138F4DC01ED91FC91E60FA7
:100CD000F11D84810895643C91F0663C91F0673C7D
:100CE00091F0653C91F0683C31F4DC01ED91FC91B0
:100CF00086898150089580E693E00E94F5048AE297
:100D0000089580E0089581E008958FEF0895DC0153
:100D10001496ED91FC911597309779F013961C92EB
:100D2000139716961C92A081B181109721F485EF3C
:100D300090E00E94F50414821C920895CF93DF93F3
:100D4000DC0114968C9114978F5F14968C931497F2
:100D500012969C911297981720F48CEF90E00E94C5
:100D6000F50413962C91139730E021153105F9F015
:100D70004D915C911197E9012197225031092097FB
:100D800089F0FA01E20FF31F9081292F221F2227F9
:100D9000221FFA01EC0FFD1F9081990F922B908377
:100DA0009E01E3CF21E06111F4CF20E0F2CFDF918B
:100DB000CF9108957F928F929F92AF92BF92CF92E0
:100DC000DF92EF92FF920F931F93CF93DF930E94D6
:100DD0002A0200912F0110913001209131013091B0
:100DE00032014B015C01801A910AA20AB30A609396
:100DF0002F01709330018093310190933201D09094
:100E00002E0181E080932E012091040130E0F90150
:100E1000EC58FD4F8491F901E05AFD4FC491F9015E
:100E2000E45BFD4FD491DD2379F081110E94D30161
:100E3000ED2FF0E0EE0FFF1FE65EFD4FA591B491A0
:100E4000EC91CE23D1E009F4D0E0C4010E94560415
:100E5000E0912D0191E09E0F937020912C012913B8
:100E600005C021E0290F237020932C01F0E0EE0F44
:100E7000FF1FEC5DFE4FD083818390932D01D11035
:100E8000A3C095E0C92E99249394E0912C01809100
:100E90002D01E81709F497C0F0E0EE0FFF1FEC5D9D
:100EA000FE4FB080A1807894C091E001D091E10123
:100EB000209709F480C0E881F981E080F1808B817E
:100EC00087018C9D000D111D1124F801849031962D
:100ED0006491CE010E946206782EF80132966491E8
:100EE000CE010E946206F6E0F81508F452C0E82D23
:100EF000F0E0E358F84F0C942D0E84079D079F07F0
:100F0000A607B507BD07C107B714E8F08B15D8F0E1
:100F1000F8013396E491A881B981E7FF05C0EF7726
:100F2000EA0FFB2FF11DE48112968D919C91E81739
:100F3000190690F18EE993E012C09E82E9CFA714C2
:100F400010F08A1528F7F8013496E4CFAC81BD8102
:100F5000ED91FC911197309721F485EF90E00E947C
:100F6000F50414961C921082D3CFE881F981618D2B
:100F70008C819D810E949E06CBCFE881F981628D94
:100F8000F7CFEC81FD8194819715E8F28917D8F2AB
:100F9000BFCF83E993E0E3CFEB83C701EC9D800DE6
:100FA000911D1124FC01E491E23008F088CF0984FE
:100FB000DA85C02D7DCFF89480912C018F5F8370EE
:100FC00080932C0162CF7894D0922E01DF91CF9143
:100FD0001F910F91FF90EF90DF90CF90BF90AF9057
:100FE0009F908F907F9008951F920F920FB60F924F
:100FF00011242F933F938F939F93AF93BF9380912F
:101000003A0190913B01A0913C01B0913D0130919A
:10101000390123E0230F2D3758F50196A11DB11D8D
:101020002093390180933A0190933B01A0933C01B6
:10103000B0933D0180913E0190913F01A09140010C
:10104000B09141010196A11DB11D80933E01909385
:101050003F01A0934001B0934101BF91AF919F9197
:101060008F913F912F910F900FBE0F901F90189569
:1010700026E8230F0296A11DB11DD2CF1F920F9219
:101080000FB60F9211242F933F934F935F936F935B
:101090007F938F939F93AF93BF93EF93FF93E091D1
:1010A0000201F09103010995FF91EF91BF91AF917A
:1010B0009F918F917F916F915F914F913F912F9170
:1010C0000F900FBE0F901F9018951F920F920FB6A2
:1010D0000F9211242F933F934F935F936F937F93BE
:1010E0008F939F93AF93BF93EF93FF93E091000192
:1010F000F09101010995FF91EF91BF91AF919F91FF
:101100008F917F916F915F914F913F912F910F90B0
:101110000FBE0F901F9018951F920F920FB60F924F
:1011200011242F933F934F935F936F937F938F93EC
:101130009F93AF93BF93EF93FF9382E491E00E945C
:101140004303FF91EF91BF91AF919F918F917F9159
:101150006F915F914F913F912F910F900FBE0F9024
:101160001F9018951F920F920FB60F9211242F9374
:101170008F939F93EF93FF93E0915201F09153016E
:101180008081E0915801F091590182FD1BC090814E
:1011900080915B018F5F8F7320915C01821741F01A
:1011A000E0915B01F0E0EE5BFE4F958F80935B0179
:1011B000FF91EF919F918F912F910F900FBE0F9004
:1011C0001F9018958081F4CF109245011092440130
:1011D00088EE93E0A0E0B0E0809346019093470151
:1011E000A0934801B09349018FE091E090934301AF
:1011F0008093420185EC90E090934F0180934E01E3
:1012000084EC90E0909351018093500180EC90E049
:10121000909353018093520181EC90E0909355019B
:101220008093540182EC90E0909357018093560193
:1012300086EC90E0909359018093580110925B01E5
:1012400010925C0110925D0110925E011092E20119
:101250001092E3011092E4011092E5011092E60170
:101260001092E7011092E8011092E9011092EA0150
:1012700082E0809304011092E1011092E0018091DC
:10128000DF018F5F8093DF01813021F08CEE93E0EE
:101290000E94F5040895789484B5826084BD84B575
:1012A000816084BD85B5826085BD85B5816085BD61
:1012B00080916E00816080936E0010928100809119
:1012C00081008260809381008091810081608093A1
:1012D0008100809180008160809380008091B100C6
:1012E00084608093B1008091B00081608093B000F1
:1012F00080917A00846080937A0080917A00826085
:1013000080937A0080917A00816080937A00809146
:101310007A00806880937A001092C100E2E6F2E0E1
:101320002491EEE4F2E084918823C1F090E0880FEC
:10133000991FFC01E85CFD4FC591D491FC01EE5B67
:10134000FD4FA591B4919FB7F8948881E22FE09565
:101350008E2388838C91E823EC939FBFE091520108
:10136000F091530182E08083E0914E01F0914F01B2
:101370001082E0915001F091510110E11083109220
:101380005A01E0915601F091570186E08083E09187
:101390005401F0915501808180618083E091540176
:1013A000F0915501808188608083E0915401F09133
:1013B0005501808180688083E0915401F09155014E
:1013C00080818F7D808388E20E94A50585E090E082
:1013D0000E94E60CEC0185E090E00E94E60CFC0126
:1013E0009983888385E08B8388E28C8388E7848374
:1013F000138386ED82838EEB818380839E0144EF8D
:1014000051E060E070E08DEC93E00E943A0580E2EC
:101410000E94A50585E090E00E94E60CEC014FEBF0
:1014200067ED0E9488059E0144EF51E060E070E0A6
:1014300088ED93E00E943A0585E090E00E94E60C7A
:10144000EC0148E660E00E9488059E0144EF51E00F
:1014500060E070E080EE93E00E943A0585E090E065
:101460000E94E60CEC0146EA6EEC0E9488059E01A3
:1014700044EF51E060E070E087EE93E00E943A05AF
:1014800085E090E00E94E60CEC014DEB65ED0E94DA
:1014900088059E0144EF51E060E070E08FEE93E03C
:1014A0000E943A0585E090E00E94E60CEC014CEBCE
:1014B00064ED0E9488059E0144EF51E060E070E019
:1014C00087EF93E00E943A0585E090E00E94E60CE9
:1014D000EC0140ED68EB0E9488059E0144EF51E06D
:1014E00060E070E082E094E00E943A0585E090E0E0
:1014F0000E94E60CEC014BEA63EC0E9488059E0119
:1015000044EF51E060E070E086E094E00E943A052C
:1015100085E090E00E94E60CEC0149EA61EC0E9453
:1015200088059E0144EF51E060E070E08AE094E0BD
:101530000E943A0585E090E00E94E60CEC014FED38
:1015400067EB0E9488059E0144EF51E060E070E087
:101550008EE094E00E943A0585E090E00E94E60C5F
:10156000EC014BEB63ED0E9488059E0144EF51E0D6
:1015700060E070E082E194E00E943A0585E090E04E
:101580000E94E60CEC014AEB62ED0E9488059E0188
:1015900044EF51E060E070E086E194E00E943A059B
:1015A00085E090E00E94E60CEC0148EB60ED0E94C3
:1015B00088059E0144EF51E060E070E08AE194E02C
:1015C0000E943A0585E090E00E94E60CEC0149EBB0
:1015D00061ED0E9488059E0144EF51E060E070E0FB
:1015E0008EE194E00E943A0585E090E00E94E60CCE
:1015F000EC0144EA6CEC0E9488059E0144EF51E046
:1016000060E070E082E294E00E943A0585E090E0BC
:101610000E94E60CEC0143EA6BEC0E9488059E01F7
:1016200044EF51E060E070E086E294E00E943A0509
:1016300085E090E00E94E60CEC0142EA6AEC0E9430
:1016400088059E0144EF51E060E070E08AE294E09A
:101650000E943A0585E090E00E94E60CEC0141EA28
:1016600069EC0E9488059E0144EF51E060E070E063
:101670008EE294E00E943A0585E090E00E94E60C3C
:10168000EC0140EA68EC0E9488059E0144EF51E0BD
:1016900060E070E082E394E00E943A0584E292E028
:1016A0000E94B2030E94C501C091E001D091E10106
:1016B000D12CE12CC12CF12C209709F425C18E816D
:1016C000882309F417C18091EA01882381F0C110B1
:1016D0000EC0E090E801C82EEE2049F08091E201B2
:1016E000823010F40E94B1021092E801CE2C1091C9
:1016F000E301112321F0FF2009F441C0F12E8FB73F
:10170000F89480903A0190903B01A0903C01B090F9
:101710003D018FBF0F811885712C0115110509F44A
:10172000E5C0F80184819581A681B7810097A10564
:10173000B10599F040855185628573854115510544
:101740006105710551F0840F951FA61FB71F8816FC
:101750009906AA06BB0608F4B8C0F801A081B181B9
:101760008C819D81109709F4B4C0009709F06BC07B
:1017700084E491E00E94F504D0E0C0E09DCFF090B9
:10178000E801FF2041F08091E201823010F40E94D4
:10179000B1021092E8018FEF9FEF90933601809392
:1017A0003501A0E1B0E0B0933401A09333018FB7CD
:1017B000F89480903A0190903B01A0903C01B09049
:1017C0003D018FBF6FE472E08091E2010E94A901A8
:1017D0008091E4019091E501A091E601B091E701CB
:1017E00020913301309134012C30310504F1009700
:1017F000A105B105A9F32FB7F89480913A01909112
:101800003B01A0913C01B0913D012FBF881999097E
:10181000AA09BB094091E4015091E5016091E601FC
:101820007091E70184179507A607B70788F28091A2
:10183000E201823010F40E94B102FF2009F45ECF71
:101840000E94C5015CCF14964C911497242F30E070
:10185000FC015481652F70E062177307B4F12617FD
:1018600037079CF121503109A0F1522E241718F0AE
:1018700087E191E07FCF622F677022242394312C7F
:1018800001C0220C6A95EAF7B901E3E07595679506
:10189000EA95E1F7ED91FC911197E60FF71FE081D2
:1018A000E22166246394E11101C0612C551600F712
:1018B000FC0140805180F201E60FF71F6081262273
:1018C00061E009F460E0661569F2F80104851585A8
:1018D00024CFD80118968D929D92AD92BC921B9701
:1018E0001296ED91FC9109957394EFCFCE010E9471
:1018F0008706D70C8091E901882311F0D1103CCFE5
:101900000984DA85C02DD8CE8091E901882381F041
:10191000DD2071F0F894C091E001D091E1012097B1
:10192000D1F0CE010E9487060984DA85C02DF7CF59
:10193000FF2091F0F894C091E001D091E10120974F
:1019400051F08E81811103C0CE010E948706098467
:10195000DA85C02DF4CF7894E1100E94C501809102
:10196000380190E0FC01E05AFD4F2491845B9D4FCB
:10197000FC018491882399F090E0880F991FFC0165
:10198000E85CFD4FA591B491FC01EE5BFD4F8591A4
:1019900094918FB7F894EC91E22BEC938FBF8091E8
:1019A00038019091370161E0911101C060E00E941F
:1019B000FC0180E090E0892B09F476CE0E942F0391
:1019C000882309F471CE0E9400006ECE0F931F93FE
:1019D000CF93DF938230910510F482E090E0E091A4
:1019E000ED01F091EE0130E020E0B0E0A0E03097B2
:1019F00099F42115310509F44AC0281B390B24300C
:101A00003105D8F58A819B816115710589F1FB014A
:101A100093838283FE0111C0408151810281138131
:101A200048175907E0F04817590799F4109761F0E3
:101A300012960C93129713961C933296CF01DF9156
:101A4000CF911F910F9108950093ED011093EE0136
:101A5000F4CF2115310551F04217530738F0A90191
:101A6000DB019A01BD01DF01F801C1CFEF01F9CF20
:101A70009093EE018093ED01CDCFFE01E20FF31FB5
:101A8000819391932250310939832883D7CF2091B4
:101A9000EB013091EC01232B41F4209107013091AF
:101AA00008013093EC012093EB0120910501309166
:101AB00006012115310541F42DB73EB740910901CA
:101AC00050910A01241B350BE091EB01F091EC01E0
:101AD000E217F307A0F42E1B3F0B2817390778F005
:101AE000AC014E5F5F4F2417350748F04E0F5F1F64
:101AF0005093EC014093EB01819391939FCFF0E0E1
:101B0000E0E09CCFCF93DF930097E9F0FC013297A0
:101B100013821282A091ED01B091EE01ED0130E04F
:101B200020E01097A1F420813181820F931F209132
:101B3000EB013091EC012817390709F061C0F093EF
:101B4000EC01E093EB01DF91CF910895EA01CE170C
:101B5000DF07E8F54A815B819E0141155105B1F728
:101B6000E901FB83EA8349915991C40FD51FEC1712
:101B7000FD0761F4808191810296840F951FE90130
:101B800099838883828193819B838A83F0E0E0E05C
:101B900012968D919C9113970097B9F52D913C91D8
:101BA0001197CD010296820F931F2091EB01309186
:101BB000EC012817390739F6309751F51092EE01EC
:101BC0001092ED01B093EC01A093EB01BCCFD38355
:101BD000C28340815181840F951FC817D90761F4D2
:101BE0004E5F5F4F88819981480F591F5183408311
:101BF0008A819B81938382832115310509F0B0CFBF
:101C0000F093EE01E093ED019ECFFD01DC01C0CF2A
:101C100013821282D7CFA1E21A2EAA1BBB1BFD0191
:101C20000DC0AA1FBB1FEE1FFF1FA217B307E407BB
:101C3000F50720F0A21BB30BE40BF50B661F771F13
:101C4000881F991F1A9469F76095709580959095F3
:101C50009B01AC01BD01CF010895EE0FFF1F059060
:0A1C6000F491E02D0994F894FFCFF1
:101C6A00C402C402FF0000EF01800000000000650A
:101C7A0003C502F20236042303010315030D0A0009
:00000001FF
